:020000040000FA
:02000000512885
:040002000034003492
:08000800A100030EA200831207
:1000100003138C1E3E28831203131A08A000A01B92
:1000200022282008013C03192D282008023C03192E
:1000300030282008073C031933282008083C0319FE
:1000400036283E2820087F39AB0065302B02031884
:100050006430031C2B08A4003E28230843203E28BC
:10006000240843203E28270843203E282808FF3C38
:1000700043203E2820083F39A4003E28220E83005A
:10008000A10E210E090083160313981C4528831224
:100090000313990008008207113402340434083431
:1000A000003483160313860183160313FF30850083
:1000B0008316031304309F00831603133330990013
:1000C0008316031324309800831203139030980092
:1000D000831603138C16831203130B178B17DE2062
:1000E000EB20B001AF01B101A4010030BF20AB0093
:1000F00065302B0203186430031C2B08AB00310859
:100100002B02031986282B08B100A400CA30CE2088
:10011000240808212C08303ED6202D08303ED62059
:100120002E08303ED6200130BF20A800C130CE209E
:100130002808FF3C08212C08303ED6202D08303EF0
:10014000D6202E08303ED620AA302802031CAA282A
:100150006430A4002408300203197528031CB12858
:10016000B8280A30AB002521AB0BB328B00A75289C
:100170000A30AB002B21AB0BBA28B00375288312D1
:100180000313AB00AB0DAB0D2B0D383981389F003D
:100190001C211F151F19CA281E08080083120313EB
:1001A0008800091089141C21891008008312031388
:1001B0008800091489141C21891008008316031370
:1001C00089018316031388013830CE200C30CE20ED
:1001D0000130CE2008008330CE202E30D62086304D
:1001E000CE204330D6208E30CE206830D6205030FE
:1001F000D6206130D620C630CE204C30D620753087
:10020000D6207830D620CD30CE202530D62008001C
:10021000AB00AC01AD0164302B02031C1229AB0012
:10022000AC0A0B290A302B02031C1929AB00AD0ABA
:1002300012292B08AE000800FA30A9000430AA00E9
:10024000AA0B2029A90B1E290800AF0A04302F028F
:100250000319AF013229AF03FF302F060319033012
:0E0260000319AF002F084B2086001C21080058
:02400E007A3FF7
:00000001FF
